:1000000002308A00EC2A00000A108A100A118207C6
:1000100028340C3401340634F4326D38A0183A1008
:1000200025192E196600F4326D3820193A10251959
:100030002E196600443084008313000803192E280B
:100040000130F800F701F70B2328F80B22284A307B
:10005000F700F70B29282C28800B202808004B0ECE
:10006000F039F7000F300805770488000000081405
:100070003928081008000808F700080E0F39F800A2
:10008000080088100F3083160805F03888008312A6
:1000900008150000081400003B207808CB00081069
:1000A0000000081400003B207808CA0008100F3038
:1000B00083160805880083124B0EF700F030F70511
:1000C00077084A04F8007808CA00CA1B4228481C6E
:1000D0008810481888140000081100000810490E04
:1000E000CA000F30CA054A08CB002F2049080F3933
:1000F000CA00CB002F2008000F30831608058800A7
:1001000008108810081183128810081108100F3089
:10011000C4001A200130B6003608033C031C98289E
:100120000330CB002F200530C4001A20B60A8C28DB
:100130000230CB002F20B6013608033C031CA9284F
:1001400036080420B700C8013708C9004120B60AA4
:100150009C288A110A121C2B8E30F7003708F800F1
:100160003608F900FA01F808031DC0287908F800DC
:10017000F9010830F702F808031DC028F701C82864
:100180000310F81BC728F90DF80DF703C028F81362
:100190000800430803193929CB00470803193929F6
:1001A000CB070318DA287F30CB02031C3929031947
:1001B0003929DE288130CB07031839294B08F7008D
:1001C000F801F901FA014408CF00CF174508CE0025
:1001D0004608CD001830CB00CC014D1C07294A0839
:1001E000FA07031CF928F90A031DF928F80A03196C
:1001F000CC174908F907031C0029F80A0319CC1782
:100200004808C500C5174508F8070318CC17CC0DDA
:10021000F80CF90CFA0CCF0CCE0CCD0C0310CB0B58
:10022000EC280130F70703183929F81B1E29CF0DD8
:10023000FA0DF90DF80DF70303193929CF1F2F29EE
:10024000FA0A031D2F29F90A031D2F29F80A031D95
:100250002F29F80CF90CFA0CF70A0319392944086C
:10026000CC004808CC06CC1F3729F8173D29F813D5
:100270003D29F701F801F901FA010800450B412970
:1002800044294030C6004529C60101304402C60752
:1002900046088038C700C8014708C9004120080047
:1002A00043080C3A03195B29063A03196329023AF9
:1002B000031969296E29C8010130C90041200230A3
:1002C000C4001A2074290130C4000230C5003E2148
:1002D0007429C8011030C900412074290130C800B8
:1002E0004308C900412074290800831603178C179E
:1002F0000C14000000000318A42983120C087F3995
:100300000313B70003170D080313B80003170F08F2
:100310000313B9003708C3005021380803178D00B4
:100320000313390803178F0083168C170C14000071
:10033000000083120313B60B9E29A129831603170D
:10034000A429C2298316031783120C0D0E0D7F39C1
:100350000313B70003170D080313B80003170F08A2
:100360000313B9003708C3005021380803178D0064
:100370000313390803178F008D0A03198F0A03131B
:10038000B60B75290800F701F801F901FA01CB0154
:10039000CC01CD01CE014A084904480447040319A1
:1003A000012A2030CF000310C30DC40DC50DC60DAA
:1003B000CB0DCC0DCD0DCE0D4A084E02031DEA2902
:1003C00049084D02031DEA2948084C02031DEA2989
:1003D00047084B02031CFB294708CB024808031CB3
:1003E000480FCC024908031C490FCD024A08031CE0
:1003F0004A0FCE020314F70DF80DF90DFA0DCF0BCD
:10040000D3294B308400831308000408BB003A084A
:10041000BD000319242A3908C6003808C50037086A
:10042000C4003608C300CA01C9012030C8008230A8
:10043000C700C9207A08B9007908B8007808B70061
:100440007708B600BD0B0B2A3908C6003808C5006E
:100450003708C4003608C3004308B63CC300FA019D
:100460004408C700C4170310C40CC50CC60CFA0C12
:10047000F90CF80CF70CC30B332AC71F4A2AF709EB
:10048000F809F909FA09F70A0319F80A0319F90A28
:100490000319FA0A7A08B9007908B8007808B70091
:1004A0007708B600B91F612ABB03BB16B609B709A6
:1004B000B809B909B60A0319B70A0319B80A031922
:1004C000B90A3B30C2009A30C100CA30C000BF0137
:1004D0000A30BD003A080319BB0A3908C6003808BB
:1004E000C5003708C4003608C3004208CA004108E6
:1004F000C9004008C8003F08C700C3210008B60073
:10050000840A0008B700840A0008B800840A0008BA
:10051000B900FD308407F708031DA12A3A0A3D02FD
:100520000319A12A3B080319A32A0F393D02031915
:100530009B2A0318D32ABB1BD32A3B1BA32A203098
:10054000CF2A2030BB05BB1EB12ABB123A08031DBF
:10055000BB037708BB002D30C30050213B08F700D8
:10056000BB013A083D02031DBF2A7708BB002E30AD
:10057000C30050213B08F7002030BB05003030306D
:10058000BB1ECF2ABB123A08031DBB037708BB0072
:100590002D30C30050213B08F700BB013030F70776
:1005A0007708C30050214208C6004108C500400832
:1005B000C4003F08C300CA01C901C8010A30C7000E
:1005C000C3217A08C2007908C1007808C000770802
:1005D000BF00BD0B6D2A0800840183131F30830503
:1005E000A901A801A701A601AD01AC01AB01AA01B7
:1005F000B101B001AF01AE01B501B401B301B20167
:1006000083161F149F141F159F1107309C0083121F
:10061000A001A101FF3083168500003088001F1063
:100620009F101F119F111F1383121F139F178316F3
:100630009F1783121F147C280230B600FA30C400C2
:100640001A20B60B1E2B0030F8001F08C73978049B
:100650009F000330F700F70B2B2B1F151F192E2BB4
:100660001E08FA0083161E088312B6001E08B70083
:10067000AC207A08A9007908A8007808A7007708B4
:10068000A6002908C6002808C5002708C4002608B7
:10069000C300F830CA00FF30C9007930C8007D308F
:1006A000C700C9207A08A9007908A8007808A7001F
:1006B0007708A6000130C400C5003E210C300317A6
:1006C0008D0000308F00031008300313B600752131
:1006D000893084002908B9002808B8002708B70025
:1006E0002608B6000230BA0005220830F8001F08BC
:1006F000C73978049F000330F700F70B7D2B1F15D7
:100700001F19802B1E08FA0083161E088312B600DC
:100710001E08B700AC207A08B1007908B00078084C
:10072000AF007708AE003108C6003008C5002F08BA
:10073000C4002E08C300F830CA00FF30C900793069
:10074000C8007D30C700C9207A08B1007908B00020
:100750007808AF007708AE000130C4000230C50051
:100760003E21133003178D0000308F000310083036
:100770000313B6007521893084003108B9003008B0
:10078000B8002F08B7002E08B6000230BA000522C4
:040790001C2B6300BB
:02400E00313F40
:00000001FF
;PIC16F877A
;CRC=FAB3  CREATED="02-jun-10 17:43"
